:020000040800F2
:1000000000000220F50D0108E12201086523010826
:100010007923010899230108A123010800000000A9
:10002000000000000000000000000000A1F800082F
:10003000A92301080000000031F90008AD230108E0
:10004000490E0108490E0108490E0108490E010830
:10005000490E0108490E0108F12F0208113002086B
:10006000313002085130020871300208B123010812
:10007000490E0108BD230108490E0108C9230108E2
:10008000D5230108E1230108490E0108F9230108DD
:1000900005240108092401080D24010891300208F3
:1000A000490E0108490E0108490E0108490E0108D0
:1000B000490E0108490E0108490E0108B50501085D
:1000C000C1050108490E0108490E0108490E010841
:1000D000490E0108490E010811240108490E0108C2
:1000E00015310208490E0108490E0108490E0108A0
:1000F000150301081D240108490E0108ED2301081C
:10010000490E0108490E01080903010839240108B4
:1001100045240108490E0108490E0108490E01084D
:10012000490E0108490E0108490E0108490E01084F
:10013000490E01080000000000000000490E0108FF
:10014000490E0108490E0108490E0108CD050108B4
:10015000490E0108490E0108490E0108490E01081F
:10016000490E0108490E0108490E0108490E01080F
:10017000490E0108B903010800000000000000005A
:08018000490E0108490E0108B7
:1001C0000348044B834202D0034B03B118477047E6
:1001D000F00E0020F00E0020000000000548064947
:1001E0000B1AD90F01EBA301491002D0034B03B145
:1001F00018477047F00E0020F00E002000000000AD
:1002000010B5064C237843B9FFF7DAFF044B13B15E
:100210000448AFF300800123237010BDF80E0020C6
:100220000000000040A1030808B5044B1BB10449BD
:100230000448AFF30080BDE80840CFE700000000AD
:10024000FC0E002040A1030810EE102A22F000410D
:10025000CB0D7F3B162B28DC002B18DB19491941ED
:100260000A4221D0DFED187A70EE277AF5EEC07AD7
:10027000F1EE10FA18DD002A04DA4FF4000040FA1B
:1002800003F31A4422EA010300EE103A7047DFED4F
:100290000E7A70EE277AF5EEC07AF1EE10FA03DDF1
:1002A000002A08DB9FED090A7047B1F1FF4FFBD32D
:1002B00030EE000A70470029FFEE007A18BFB0EE5A
:1002C000670A7047FFFF7F00CAF249710000000013
:1002D00082B08DED010A0199C1F3C753A3F17F02EA
:1002E000162A16DC002A0DDB10481041084212D0F5
:1002F0004FF4800313410B4423EA000300EE103A4D
:1003000002B07047013201F00043F7D143F07E5351
:10031000F4E7802A03D09DED010A02B07047DDEDBD
:10032000017A37EEA70A02B0704700BFFFFF7F00D7
:1003300008B52DED028BB0EE408A00F021F80E4B8F
:1003400093F9003001330BD0B4EE488AF1EE10FA85
:1003500006D6DFED0A8AB4EEE88AF1EE10FA02D48E
:10036000BDEC028B08BD00F023F888EEA80ABDECB6
:10037000028B2123036008BD14020020000000004E
:10038000B1EEC00A704700BF08B5062000F00AFDB4
:1003900001200CF03BFD00BF002301461A46184621
:1003A00003F08CBA13460A460146022003F086BACF
:1003B000014B1868704700BF1802002038B50A4C7E
:1003C0000A4D641BA4100AD004F18043013B05EBE5
:1003D0008305013C55F804399847002CF9D1BDE854
:1003E000384039F0B3BE00BF5C000508580005086E
:1003F00070B50D4E0D4D761BB61006D0002401349D
:1004000055F8043B9847A642F9D1094E094D761B91
:1004100039F096FEB61006D00024013455F8043B9E
:100420009847A642F9D170BD300005083000050894
:100430005800050830000508024B0146186800F016
:100440000BB800BF18020020024B0146186804F0E8
:1004500077BC00BF180200202DE9F04F01F10B0519
:10046000162D83B0064623D8102900F2B98000F07B
:10047000F7FB102518230220CD4F3B44A3F10802BF
:100480005C68944200F0B980636823F0030323445E
:10049000D4E902515A68E96042F0010230468D60A9
:1004A0005A6000F0DFFB0834204603B0BDE8F08F4F
:1004B00035F0070500F19480A94200F2918000F028
:1004C000CFFBB5F5FC7FC0F09D816B0A00F08F80FB
:1004D000042B00F27381AB0903F1390003F1380CEE
:1004E000C300B34F3B44A3F108015C68A14206D1AD
:1004F0000CE0002A80F22B81E468A14206D06368F8
:1005000023F003035A1B0F2AF3DD60463C69DFF832
:10051000A4C264457CD0636823F003035A1B0F2AEE
:1005200000F37E81002AC7E904CC80F26F81B3F525
:10053000007F80F01A81DB08591C7A6857F83180F7
:10054000C4F808804FF0010E9B100EFA03F307EB7E
:10055000C10E1343AEF10802E2607B6047F8314000
:10056000C8F80C408210012494409C4256D81C428A
:1005700006D120F0030064001C4200F10400FAD010
:1005800007EBC009CE468046DEF80C309E4507D109
:1005900020E1002A80F22781DB689E4500F01A8165
:1005A000596821F003014A1B0F2AF2DDD3E9028EBC
:1005B0005C1945F001055D6042F00105C8F80CE0EA
:1005C0003046CEF80880C7E90444C4E902CC65602F
:1005D0005A50009300F046FB009B03F1080402E030
:1005E0000C2333600024204603B0BDE8F08F4FF4A5
:1005F000007340204FF03F0C73E7DC68A34208BF54
:1006000002307FF441AF3C69DFF8A8C1644582D174
:100610007B688210012494409C42A8D9BC6863681E
:1006200023F00308A84503D3A8EB05030F2B7EDCBA
:10063000DFF88491D7F80824D9F80030013204EBB0
:10064000080A2B4400F0378103F580530F3323F45D
:100650007F6B2BF00F0B5946304600F005FB411C19
:10066000024600F0F780824500F2F280D9F80410CB
:100670005944C9F804100B4600F05381D7F8081408
:1006800001311BBFA2EB0A0A5344C7F80824C9F87A
:10069000043012F0070300F01A81C3F108010A4484
:1006A000C3F5805193440831A1EB0B01C1F30B0A50
:1006B000514630460193009200F0D6FA421CDDE923
:1006C000002300F05381831A03EB0A0BD9F80410BE
:1006D000BA604BF001035144BC425360C9F80410A6
:1006E00000F02B81B8F10F0F40F229816368A8F167
:1006F0000C0020F0070003F0010304EB000C03439F
:100700004FF0050E0F286360CCE901EE00F2358151
:1007100053681446D9F82C208A42D9F8302038BFC3
:10072000C9F82C108A4238BFC9F8301094E0621919
:1007300043F0010345F0010565603046BA6053603F
:1007400000F090FA0834204603B0BDE8F08F23444F
:10075000E1685A68A56842F00102E96030468D60A0
:100760005A6000F07FFA08343DE75A0A042A69D932
:10077000142A00F2BE8002F15C01C9005B3207EB73
:10078000010E7958AEF1080E8E4500F097804A6848
:1007900022F003029A4202D989688E45F7D1D1F836
:1007A0000CE07B68C4E9021ECEF80840CC60D9E6B4
:1007B0004806002050060020140F0020142B59D9A1
:1007C000542B00F29E802B0B03F16F0003F16E0C93
:1007D000C30086E608F1010818F0030F0EF1080EB9
:1007E0007FF4D2AE51E019441C464A68DB6854F8E5
:1007F000085F42F001024A603046EB609D6000F005
:1008000031FAF0E6E80805F1080335E623443046FE
:100810005A6842F001025A60083400F023FAE2E616
:10082000611945F0010E42F00105C4F804E03046BC
:10083000C7E90411C1E902CC4D60E25000F012FAA0
:100840000834D0E69A0902F13901C900383296E736
:10085000BC4260D0BC68636823F0030BAB45ABEBD4
:10086000050302D30F2B3FF762AF304600F0FAF9D1
:100870000024B8E603F15C0003F15B0CC30030E632
:1008800059F808394B4540F0968010F0030F00F1FD
:10089000FF30F5D17B6823EA04037B6064009C424F
:1008A0003FF6BCAE1CB9B9E6640008F104081C426E
:1008B000FAD0404664E603F1100BCCE67B68921058
:1008C0004FF0010808FA02F213437B606AE702EB7B
:1008D0000B014942C1F30B0A514630460193009285
:1008E00000F0C2F9431CDDE900237FF4ECAE9A4628
:1008F000ECE6542A26D81A0B02F16F01C9006E32B9
:100900003DE7B3F5AA7F26D8EB0B03F1780003F19E
:10091000770CC300E5E5D9F804305B44C9F804302E
:10092000ACE6CAF30B0000287FF4A8AE08EB0B037B
:10093000BC6843F001036360ECE61446EAE6012379
:10094000536092E7B2F5AA7F21D8DA0B02F1780161
:10095000C900773213E740F25452934221D8AB0CCE
:1009600003F17D0003F17C0CC300BAE5083B9B4416
:10097000ABEB020B4FF0000AA8E604F10801304689
:1009800004F0DEF9BC68D9F804106368C2E640F2EE
:1009900054518A420BD89A0C02F17D01C9007C3275
:1009A000EDE64FF47E737F204FF07E0C99E54FF417
:1009B0007E717E22E3E67B6870E700BF844641EAF1
:1009C000000313F003036DD1403A41D351F8043BC7
:1009D00040F8043B51F8043B40F8043B51F8043B19
:1009E00040F8043B51F8043B40F8043B51F8043B09
:1009F00040F8043B51F8043B40F8043B51F8043BF9
:100A000040F8043B51F8043B40F8043B51F8043BE8
:100A100040F8043B51F8043B40F8043B51F8043BD8
:100A200040F8043B51F8043B40F8043B51F8043BC8
:100A300040F8043B51F8043B40F8043B51F8043BB8
:100A400040F8043B51F8043B40F8043B403ABDD227
:100A5000303211D351F8043B40F8043B51F8043BC9
:100A600040F8043B51F8043B40F8043B51F8043B88
:100A700040F8043B103AEDD20C3205D351F8043B58
:100A800040F8043B043AF9D2043208D0D2071CBF24
:100A900011F8013B00F8013B01D30B88038060464D
:100AA000704700BF082A13D38B078DD010F00303C3
:100AB0008AD0C3F10403D21ADB071CBF11F8013B33
:100AC00000F8013B80D331F8023B20F8023B7BE782
:100AD000043AD9D3013A11F8013B00F8013BF9D2AD
:100AE0000B7803704B7843708B7883706046704747
:100AF0008842F0B40DD98B1883420AD9841832B1D8
:100B0000224613F8014D02F8014D9942F9D1F0BC8B
:100B100070470F2A0ED80346541E002AF7D001341E
:100B20000C44013B11F8012B03F8012FA142F9D12C
:100B3000F0BC704740EA01039B073BD1A2F11007CC
:100B40003F0901F1200606EB071601F1100300F141
:100B5000100453F8105C44F8105C53F80C5C44F833
:100B60000C5C53F8085C44F8085C53F8045C44F8E7
:100B7000045C1033B34204F11004EAD17B1C1B0166
:100B800012F00C0F194402F00F05034415D0043D78
:100B9000AD0803EB850C1C1F0E4656F8047B44F889
:100BA000047F6445F9D10135AD002B44294402F09E
:100BB0000302B1E7541E0346B1E72A46ACE700BF83
:100BC000F0B4860746D0541E002A3CD0CAB2034671
:100BD00002E014F1FF3436D303F8012B9D07F8D15E
:100BE000032C29D9CDB245EA05250F2C45EA054548
:100BF00033D9A4F11006360903F1200707EB0617D5
:100C000003F1100242E9045542E902551032BA429A
:100C1000F8D1721C14F00C0F03EB021204F00F0653
:100C200013D0331F23F003030433134442F8045B4F
:100C30009342FBD106F003042CB1C9B21C4403F863
:100C4000011B9C42FBD1F0BC704734461346002C7C
:100C5000F3D1F8E714460346C2E71A462646E0E712
:100C6000704700BF704700BF38B5074C00230546EA
:100C70000846236017F04AFE431C00D038BD2368A5
:100C8000002BFBD02B6038BD94FA002010B58021DA
:100C90000446FFF7E1FBC4F8DC0240B1031F002269
:100CA0007C3043F8042F8342FBD1002010BD4FF06D
:100CB000FF3010BDD0F8DC320BB100207047E5E703
:100CC0001F2970B5054609D8D0F8DC3216460C4607
:100CD0004BB153F8240043F8246070BD1622026023
:100CE0004FF0FF3070BDFFF7D1FF10B9D5F8DC32FF
:100CF000EFE74FF0FF3070BD1F2938B522D8D0F88C
:100D0000DC2205460C466AB152F8213053B1012B62
:100D100016D0591C10D00025204642F82450984780
:100D2000284638BD284600F073F82246014628467A
:100D3000BDE8384000F058B816230360012038BDE4
:100D4000002038BD162303604FF0FF3038BD00BFD0
:100D50001F2923D838B5D0F8DC3205460C4683B1BC
:100D600053F8242003EB84034AB1511C11D0012A0B
:100D70000DD0002520461D609047284638BD012033
:100D800038BDFFF783FF30B9D5F8DC32E8E7032040
:100D900038BD022038BD4FF0FF3038BD4FF0FF3076
:100DA000704700BF024B01461868FFF7A5BF00BFA0
:100DB00018020020024B0A4601461868FFF780BF60
:100DC00018020020034B1868D0F8DC320BB1002069
:100DD00070475BE718020020024B01461868FFF7D6
:100DE000B7BF00BF1802002038B50B46074C0546B8
:100DF00011461846002323600BF0F0FF431C00D07F
:100E000038BD2368002BFBD02B6038BD94FA00203E
:100E10000BF0D4BF08B430B5002A9CB0044635DBD3
:100E20004FF4027302910691ADF8143020A918D046
:100E3000013A0B460492079201911F9A4FF6FF75F3
:100E400002A9ADF8165000F0EBFA421C01DA8B2330
:100E50002360029B00221A701CB0BDE8304001B034
:100E600070470B460492079201914FF6FF751F9A47
:100E7000ADF8165002A900F0D3FA431C01DA8B2317
:100E800023601CB0BDE8304001B070478B22026087
:100E90004FF0FF30F5E700BF0CB430B5204B002910
:100EA0009DB01C6837DB4FF4027302900690ADF8DA
:100EB000143021A819D001390346209A04910791D2
:100EC00001904FF6FF7502A92046ADF8165000F0CC
:100ED000A7FA421C01DA8B232360029B00221A70BE
:100EE0001DB0BDE8304002B0704703460491079141
:100EF00001904FF6FF75209AADF8165002A92046D2
:100F000000F08EFA431C01DA8B2323601DB0BDE88C
:100F1000304002B070478B2323604FF0FF30F5E77D
:100F2000180200200EB470B59DB021AC4FF40172D0
:100F300054F8045BADF814200290069000F000FA1B
:100F40000C4B019401462A46039107910A4E1868FA
:100F50000A9623464FF6FF75002402A90E941394B7
:100F6000ADF8165001F0A8FC1DB0BDE8704003B00C
:100F7000704700BF18020020F50F00080CB470B5D0
:100F80009CB020AC05464FF40173084654F8046B3E
:100F900002910691ADF8143000F0D2F901463246C4
:100FA000234601940391002407912846074E0A9690
:100FB0004FF6FF7502A90E941394ADF8165001F088
:100FC0007BFC1CB0BDE8704002B07047F50F000814
:100FD00010B50C46B1F90E1004F0DEFF002803DB5B
:100FE000236D0344236510BDA38923F48053A3819B
:100FF00010BD00BF002070472DE9F0411646B1F941
:101000000C201F46D3050C460546B1F90E1009D435
:1010100022F48052A2813B4632462846BDE8F04188
:1010200002F0CEBB0022022304F09EF9B4F90C209A
:10103000B4F90E10ECE700BF10B50C46B1F90E1074
:1010400004F092F9A389421C0EBF23F4805343F4A9
:1010500080532065A38110BDB1F90E1002F062BC6F
:10106000A2EB0300704700BF02780B78012A28BF6B
:101070009A42F5D16DE9044540EA0104CDE90267E1
:101080006FF0000C4FEA447212B380EA010414F0CE
:10109000070F6AD100F0070420F0070004F00305F1
:1010A00021F007014FEAC505F0E8042314F0040F0E
:1010B000F1E804670CFA05F462EA040266EA040641
:1010C0000AD063EA0403624667EA0407664603E05F
:1010D000F0E80423F1E8046782FA4CF582EA06049A
:1010E000A4FA8CF46CBB83FA4CF583EA0705A5FAE5
:1010F0008CF595B950E9022351E9026782FA4CF563
:1011000082EA0604A4FA8CF483FA4CF583EA070514
:10111000A5FA8CF52543DBD09CB92DBAB5FA85F438
:1011200024F0070427FA04F1DDE9026723FA04F347
:1011300003F0FF0001F0FF01FDE80445A0EB010012
:10114000704724BAB4FA84F424F0070426FA04F1B0
:10115000DDE9026722FA04F202F0FF0001F0FF016C
:10116000FDE80445A0EB0100704714F0030F3CD1EB
:1011700010F0030428D150F8082B51F8083B82FAEC
:101180004CF582EA0305A5FA8CF55DB950F8042CFC
:1011900051F8043C82FA4CF582EA0305A5FA8CF575
:1011A000002DE8D02DBAB5FA85F424F0070423FA0F
:1011B00004F122FA04F202F0FF0001F0FF01FDE861
:1011C0000445A0EB010070474FEAC40420F003007F
:1011D00050F8082B21F0030151F8083B0CFA04F4F5
:1011E00062EA040263EA0403C9E710F003041AD0B8
:1011F000A1EB040120F00300E40750F8042B06D013
:101200000FD28B785FFAA2F4E41A06D12BB1CB7817
:101210005FFAB2F4E41A00D11BB920465DF8104B16
:10122000704701F1040150F8042BCC0721F00301B1
:1012300051F8043B48D824D222F07F4482FA4CF57E
:1012400094EA1325A5FA8CF50AD165B951F8043B47
:1012500084EA0204B4EB036F0ED150F8042BEBE7E1
:101260004FEA132355E035F07F454DD10878FDE86E
:101270000445C0F1000070474FEA126203F0FF031B
:1012800047E002EA1C4482FA4CF594EA1345A5FAB9
:101290008CF50AD165B951F8043B84EA0204B4EB39
:1012A000034F0CD150F8042BEBE74FEA134330E027
:1012B00015EA1C4528D10B884FEA124229E04FEA73
:1012C000124203EA1C4324E002F0FF0482FA4CF5C8
:1012D00094EA1365A5FA8CF50AD165B951F8043B77
:1012E00084EA0204B4EB032F09D150F8042BEBE796
:1012F0004FEA13630DE015F0FF0F05D10B684FEABD
:10130000122223F07F4304E04FF00000FDE8044583
:10131000704712BA1BBA82FA4CF482EA0304A4FAA8
:101320008CF5B5FA85F402FA04F203FA04F34FEAF5
:101330001260FDE80445A0EB136070470000000058
:1013400090F800F06DE9024520F007016FF0000C05
:1013500010F0070491F820F040F049804FF00004AD
:101360006FF00700D1E9002391F840F000F1080088
:1013700082FA4CF2A4FA8CF283FA4CF3A2FA8CF3C0
:101380004BBBD1E9022382FA4CF200F10800A4FA27
:101390008CF283FA4CF3A2FA8CF3E3B9D1E904237B
:1013A00082FA4CF200F10800A4FA8CF283FA4CF3B2
:1013B000A2FA8CF37BB9D1E9062301F1200182FA6C
:1013C0004CF200F10800A4FA8CF283FA4CF3A2FA72
:1013D0008CF3002BC6D0002A04BF04301A4612BA80
:1013E000B2FA82F2FDE8024500EBD2007047D1E983
:1013F000002304F00305C4F100004FEAC50514F012
:10140000040F91F840F00CFA05F562EA05021CBFE2
:1014100063EA050362464FF00004A9E700000000FC
:101420002DE9F04FBFB00C4607919246CDE9080375
:1014300003F092FF036811931846FFF781FFA38919
:101440000F901D0603D52369002B00F02D879FED1B
:10145000AC7B00238DED0C7B0E93CDE922331093F2
:10146000129304932EAB219399469AF80030002BE7
:1014700000F0C180252B00F06586554603E0252B42
:1014800000F0AB8025466B786C1C002BF7D1B4EBD9
:101490000A0600F0B080DDE9223201333244072B26
:1014A000C9F800A0C9F80460CDE9223200F39A809F
:1014B00009F10809049A6B7832440492002B00F079
:1014C0009A80002367788DF867301A46194605938D
:1014D0009B4604F1010A4FF0FF360AF1010AA7F119
:1014E0002003582B00F2D482DFE813F0E000D20290
:1014F000D202DB00D202D202D202D202D202D20245
:10150000D000CB00D202C600AD00D202A8009900E4
:101510009900990099009900990099009900990003
:10152000D202D202D202D202D202D202D202D2021B
:10153000D202D20299025802D2025802D202D20238
:10154000D202D2025302D202D2026800D202D202E6
:10155000D202D202D2025900D202D2023B02D202FD
:10156000D202D202D202D202D202D202D202D202DB
:10157000D202C00196015802580258029101960108
:10158000D202D2028401D2026E016A003F013A0106
:10159000D2021001D2025B00D202D202E8004BF06C
:1015A000100B1BF0200F00F05E82099C073424F022
:1015B0000703F3E8024509930123E6E04BF0100B23
:1015C0001BF0200300F04582099C073424F0070338
:1015D000F3E8024509930023D7E0B4EB0A063FF491
:1015E00070AF58E721AADDE9071006F0FBFA48B909
:1015F0000DF1B8095EE7239B23B10898079921AA4A
:1016000006F0F0FA079B9B8913F0400F049B18BF6C
:101610004FF0FF33049304983FB0BDE8F08FA7F17B
:10162000300300201AF8017B00EB800003EB400040
:10163000A7F13003092BF5D9059050E74BF0800B4B
:101640009AF8007049E7504610F8017B2A2F01F004
:101650001881A7F13003092B82464FF000063FF6B0
:101660003EAF1AF8017B06EB860603EB4606A7F1B0
:101670003003092BF5D932E79AF800704BF0040BD0
:101680002BE79AF8007001222B2126E7099B9AF894
:10169000007053F8040B05900028C0F2F4850993FC
:1016A0001BE74BF0010B9AF8007016E79AF80070F0
:1016B00000297FF412AF012220210EE7002A41F019
:1016C0008680114B10931BF0200F00F05381099C72
:1016D000073424F00703F3E8024509931BF0010FD8
:1016E00000F0E78154EA050300F0E38130238DF830
:1016F00068308DF869704BF0020B022345E000BFA3
:10170000000000000000000010ED0408099C54F8DF
:10171000043B0A9300258DF86750002B00F0978654
:10172000711C00F0FC85324629460A9803F010FF30
:10173000002801F01E800A9BC31A06932E4623EA56
:10174000E3739DF867800994CDF808B003930B9676
:10175000B8F1000F00F09C80039B0133039397E0E6
:101760004BF0200B9AF80070B7E6099C54F8043B44
:10177000099447F630021C46C04B1093ADF8682020
:101780004BF0020B0025022378274FF000088DF85C
:101790006780721C00F091812BF08002029254EA63
:1017A000050240F08881002E40F08D83002B58D137
:1017B0001BF00103069300F0E08430238DF8B7306E
:1017C0000DF1B7030A939EE3002A40F0FC87099AC3
:1017D0001BF0200F52F8043B099240F0D1841BF01B
:1017E000100F40F0A4851BF0400F00F0A085049A74
:1017F0001A803AE69AF800706C2F03BF9AF80170CD
:101800004BF0200B0AF1010A4BF0100B65E64BF090
:10181000400B9AF8007060E6002A40F0D0871BF079
:10182000200F00F00581099C073424F007031946B6
:10183000F1E80223099114461D46002A73F10003C2
:10184000C0F27384731C9DF8678000F066832BF0F0
:101850008003029354EA050340F05D83002E40F0BC
:10186000488700262EAB06960A934CE3099C00237A
:1018700054F8042B8DF890208DF86730012224ABAA
:101880000392099406920A930026CDF808B00B96AD
:10189000029B13F0020302D0039A02320392029ACF
:1018A000239C12F0840B05D1059A0399551A002D3B
:1018B00000F375829DF8672072B1229A01320134DB
:1018C0000DF167000121072ACDE92224C9E90001B1
:1018D00000F3A08209F108096BB1229B01330234A5
:1018E0001AA90222072BCDE92234C9E9001200F31C
:1018F0009F8209F10809BBF1800F00F06A81069B05
:10190000F61A002E00F3AC81029BDE0500F1028185
:10191000229B0A9AC9F80020069AC9F804200133CC
:101920001444072B2394229300F32D8209F1080914
:10193000029B5A0705D5059B039A9D1A002D00F3BB
:101940008382DDE9043203998A42ACBF9B185B189D
:101950000493002C40F0BD81002322930DF1B809BF
:1019600083E5002A40F01087454B10931BF0200FB1
:101970007FF4ADAE099B1BF0100F53F8044B099395
:1019800040F0DD831BF0400F00F0D983A4B20025A6
:10199000A4E64BF0080B9AF800709EE5002A40F090
:1019A000F786099C073424F00703B3EC027B55EC5F
:1019B000174B099325F0004315938DED147ADDE95B
:1019C00014014FF0FF322F4B8DED0C7B09F0A2FE7E
:1019D000002840F0F1834FF0FF322A4BDDE914017B
:1019E00009F07AFE002840F0E78300220023204619
:1019F000294609F067FE002840F013869DF86780AD
:101A0000214A224B032100262BF08000472FC8BF1C
:101A10001A46039102900A9206910B9698E6002AC4
:101A200040F0D9864BF0100B1BF0200F7FF4FBAE7B
:101A3000099B1BF0100F53F8044B099340F06D8382
:101A40001BF0400F00F0698324B2E51722462B46B5
:101A5000F3E6099A52F8044B09921BF0100200F0C9
:101A60009E83002591E6099B1BF0100F53F8044B51
:101A7000099300F08C830025012386E610ED04080D
:101A8000ECB10308FFFFEF7F00ED040804ED04084C
:101A9000002A40F0EF85002F3FF4ADAD0023012276
:101AA0008DF8673024AB03928DF8907006920A93FC
:101AB000EAE6022369E6DDF808B0012B00F02D828A
:101AC000022B00F008822EA900E01146E20842EA4B
:101AD0004572E80804F0070305461446303354EA1B
:101AE000050001F8013C01F1FF32EED11BF0010FBE
:101AF0000A9200F0C382302B00F0E5830A9ACDF8F9
:101B000008B03023023902F8013C2EAB5B1A069371
:101B10000A91F8E1652F40F3E58000220023DDE91A
:101B20000C0109F0C5FD002800F00782229BCA4A7B
:101B3000C9F80020013301340122072BCDE92234FA
:101B4000C9F8042000F35D8409F108091B9B0E9A73
:101B5000239C934203DB029BDD077FF5E9AE229BCA
:101B6000119AC9F800200F9AC9F8042001331444CF
:101B7000072BCDE9223400F35D8409F108090E9B9F
:101B80005D1E002D7FF7D4AE102D229ADFF8D0B263
:101B900040F32D841026DDE9078705E009F10809E7
:101BA000103D102D40F3238401321034072ACDE973
:101BB0002224C9E900B6F1DD21AA4146384606F0E3
:101BC00011F800287FF41EADDDE922240DF1B809DB
:101BD000E6E7059B039A9D1A002D7FF790AE102D26
:101BE000229ADFF87CB22BDD58464B462146B1469F
:101BF000BB464FF01008DDE90764074604E0103DDE
:101C0000102D03F1080315DD01321031072ACDE94B
:101C10002221C3E90078F2DD21AA3146204605F0F1
:101C2000E1FF00287FF4EEAC103D102DDDE922210C
:101C30002EABE9DC4E4699463B460C465F469B463A
:101C400001322C44072ACDE92224C9E900B500F36A
:101C5000E483069BF61A002E09F108097FF754AEBB
:101C6000102E229ADFF8F8B127DD59462346BB46ED
:101C70001025DDE907480F4604E0103E102E09F15B
:101C8000080916DD01321033072ACDE92223C9E9FC
:101C90000075F2DD21AA2146404605F0A3FF002889
:101CA0007FF4B0AC103E102EDDE922230DF1B8090F
:101CB000E8DC1C463B465F469B4601323444072A1B
:101CC000CDE92224C9E900B600F31A8209F1080916
:101CD0001AE621AADDE9071005F084FF00283FF489
:101CE0003BAE8FE40E9A229B012A04F1010403F11A
:101CF000010509F1080640F3C78101230A9AC9F8D2
:101D00000020072DCDE92254C9F8043000F31D82CC
:101D10000F9B119A01351C44072DCDE92254C6E9C9
:101D2000002300F31E8208366B1C1F46B8460E9F28
:101D3000069300220023DDE90C0106F10809013FAA
:101D400009F0B6FC002840F0B3810A9B77600133AC
:101D50003C44B8F1070F33602394CDF8888000F33A
:101D6000F28206F1100305F102084E469946129AD6
:101D7000726014441DABB8F1070F2394CDF888802E
:101D800033607FF7D5AD21AADDE9071005F02AFF02
:101D900000287FF437AC239C0DF1B809C8E5102D5D
:101DA000229A2ADD49462046B1464FF010082E46B9
:101DB0001393DDE9075404E0103E102E01F10801F1
:101DC00016DD0132254B1030072ACDE92220C1E96A
:101DD0000038F1DD21AA2946204605F003FF00283E
:101DE0007FF410AC103E102EDDE922202EA9E8DC95
:101DF000139B354604464E468946013217492C440A
:101E0000072ACDE92224C9E9001500F3AC8209F1C3
:101E100008094FE521AADDE90710139305F0E2FE5A
:101E200000287FF4EFAB239C139B0DF1B80953E519
:101E300021AADDE9071005F0D5FE00287FF4E2AB0A
:101E4000239C0DF1B80956E5102D229B27DD1026A5
:101E5000DDE907870BE000BFF0C10408B4A3030865
:101E6000C4A30308103D102D09F1080917DD013343
:101E7000CF4A1034072BCDE92234C9E90026F1DD21
:101E800021AA4146384605F0ADFE00287FF4BAABE2
:101E9000103D102DDDE922340DF1B809E7DC0133E6
:101EA000C34A2C44072BCDE92234C9E900257FF72A
:101EB00048AD21AADDE9071005F094FE00287FF463
:101EC000A1AB239C3DE5012B00F01384022BDDF830
:101ED00008B07FF4F8ADDDF840C02EAA230904F065
:101EE0000F0043EA057329091C460D461CF8003013
:101EF00002F8013D54EA0503F0D12EAB9B1A0A9279
:101F0000CDF808B00693069BB342B8BF334603939F
:101F100000230B931CE4DDF808B0002D08BF0A2C49
:101F200080F08A800123303406930DF1B7038DF8D9
:101F3000B740CDF808B00A93E5E71B9B002B40F3B0
:101F400021820E9B0B9A9342A8BF1346002B1D467D
:101F50000EDD229B0A9AC9F8002001332C44072B7E
:101F60002394C9F80450229300F3E68309F1080989
:101F70000B9B002DA8BF5B1B002B1D4600F3AA8105
:101F80001B9A0E9B9A4280F28381229B1199C9F879
:101F900000100F99C9F8041001330C44072B239447
:101FA000229300F3588309F108090B990E9B914283
:101FB000A3EB020380F2BF811D46002D10DD229AA3
:101FC000C9F80450DDE90A10013201442C44072A03
:101FD000C9F80010CDE9222400F3BC8309F10809F7
:101FE000002DACBF5D1B1D46002D7FF7A1AC102D51
:101FF000229ADFF8C0B140F3FA811026DDE90787A5
:1020000005E009F10809103D102D40F3F08101327F
:102010001034072ACDE92224C9E900B6F1DD21AA4E
:102020004146384605F0DEFD00287FF4EBAADDE9E5
:1020300022240DF1B809E6E72EABCDF808A0C24680
:10204000B0461E4601E004460D460A220023204603
:10205000294609F06BFD303206F8012D00230A22D3
:102060002046294609F062FD002D08BF0A2CEAD25D
:1020700032460A964646D046DDF808A0CDF808B0AC
:102080002EAB9B1A06933EE7029AD1073FF535AE79
:1020900001220A99C9F80010072DCDE92254C9F888
:1020A000042000F3508103F1020809F110095EE6F3
:1020B000002F7FF75CAE102FDFF8F8B040F3DF831E
:1020C00023464FF01008DDE90749069D05E0083674
:1020D000103F102F40F3008201351033072DCDE95A
:1020E0002253C6E900B8F2DD21AA2146484605F090
:1020F00079FD00287FF486AADDE922532EAEE7E7BA
:1021000021AADDE9071005F06DFD00287FF47AAA09
:10211000239C0DF1B809FFF7F7BBE51722462B46C4
:10212000002A73F10003BFF68DAB4FF02D08644217
:1021300065EB45058DF867800123FFF72ABB002575
:10214000FFF7CCBA5446FFF7BCB921AADDE9071066
:1021500005F048FD00287FF455AADDE922542EAE93
:10216000D6E521AADDE9071005F03CFD00287FF443
:1021700049AADDE922542EAED6E52EAB0A93C2E67B
:10218000049A1046D117C3E90001FFF76EB91BF09E
:10219000400F18BFA4B200250123FFF7F6BA1BF0C9
:1021A00040031CBF1346A4B20025FFF7EEBA00BFE0
:1021B000B4A30308C4A30308DDE90C0102460B46DF
:1021C00009F0A8FA002840F03683741C27F0200597
:1021D00000F0BE82472D00F0B280DDE90C014BF427
:1021E000807200290292C0F222829DED0C7B8DED5F
:1021F000167B00231393662F00F08381462F00F097
:102200008081452D00F078821FAA1CABCDE90032F9
:1022100002211BAB32469DED160B089801F026FCFF
:10222000672F0A90344640F075821BF0010F40F092
:1022300074821B9A1F9B0B920A9A472DA3EB0203F1
:102240000E9340F0A1810B9BD81CC0F29C819E4252
:10225000C0F299810E9B19460B9B994200F39C8218
:102260001BF0010F40F0FA8223EAE3720392069317
:102270006727139B002B00F05A822D238DF86730BF
:102280000026FFF769BA404205900993FFF7F6B9B7
:10229000029BD8073FF579AE0B990E9B8A42A3EBC0
:1022A000020348DD1D469BE640210898FEF7D4F85E
:1022B000079B18601861002800F0F182079A4023FC
:1022C0005361FFF7C4B80A9ACDF808B02EAB9B1A39
:1022D000069318E6102B229ADFF8C8B340F39681D4
:1022E0001026DDE9078705E009F10809103D102DEA
:1022F00040F38C8101321034072ACDE92224C9E948
:1023000000B6F1DD21AA4146384605F06BFC0028F5
:102310007FF478A9DDE922240DF1B809E6E70A98EF
:10232000FFF70EF82E4603460690FFF708BA049A08
:102330001A60FFF79AB80E9A0B99551A3DE6002ECF
:1023400008BF012649E721AADDE9071005F04AFC8C
:1023500000287FF457A9DDE922340DF1C00903F10B
:1023600001082EAE03E521AADDE90710139305F05D
:1023700039FC00287FF446A9239C139B0DF1B80972
:10238000FFF798BA229AC449C9F800100132013403
:102390000121072ACDE92224C9F8041000F34E8157
:1023A00009F10809002B5DD1029B0E9A03F001038D
:1023B00013433FF4BDAA229A119BC9F800300F9B2A
:1023C000C9F8043001321C44072A2394229200F3F6
:1023D000558109F108090E9B0A9901321C44072A0C
:1023E000CDE92224C9E900137FF7A0AACBE401328A
:1023F0002C44072ACDE92224C9E900B57FF796AA23
:10240000C1E421AADDE9071005F0ECFB00287FF408
:10241000F9A80DF1B809FFF799BB21AADDE907106A
:1024200005F0E0FB00287FF4EDA8239C0DF1B8092E
:10243000FFF765BA21AADDE9071005F0D3FB0028F4
:102440007FF4E0A8239C0DF1B809FFF798BB062E96
:10245000334628BF062306930393904B09940A93AF
:10246000FFF712BA229A1199C9F800100F99C9F80A
:10247000041001320C44072A2394229200F3FE80B8
:1024800009F10809002BA6DA5D421033DFF814B217
:1024900080F2A6815F461026DDF81C80DDF820B0B2
:1024A00005E009F10809103D102D40F39881013233
:1024B0001034072ACDE92224C9E90076F1DD21AAEA
:1024C0004146584605F08EFB00287FF49BA8DDE9C5
:1024D00022240DF1B809E6E71C4605F1010806F1D2
:1024E00008023C44B8F1070F2394C6E900B7CDF8C1
:1024F00088803FF728AF08F1010802F10809164665
:1025000035E41FAA1CABCDE9003203211BAB3246D8
:102510009DED160B089801F0A9FA0A900A9B1B780A
:10252000302B00EB060400F071811B9B1C44002241
:102530000023DDE9160109F0BBF8002840F098807F
:102540001F9BA34206D230215A1C1F9219701F9B59
:102550009C42F9D80A9A9B1A0E93472D1B9B0B930A
:102560003FF471AE662F0FD10B9A0BF00103002AD6
:1025700043EA060340F3D480002B40F054810B9BC8
:102580000393069375E6023F0B9B8DF874705A1EF9
:10259000002A1B92B6BFC3F101022B232D23092A67
:1025A0008DF8753040F38C800DF1830420463C4D4E
:1025B00001E008461A4685FB0231D317C3EBA1039D
:1025C00003EB8301A2EB41013031632A00F8011CC7
:1025D00000F1FF31EDDC3033821EDBB2944201F8B2
:1025E000013C40F259810DF1760201E011F8013B06
:1025F00002F8013B8C42F9D10DF185030DF1760211
:102600001B1A13441DAA9B1A129361E001322C4439
:10261000072ACDE92224C9E900B545DC09F10809FA
:10262000AEE44FF02D088DF86780FFF7E9B901F1AE
:10263000004317932D2316901393DCE521AADDE9BF
:10264000071005F0CFFA00287EF4DCAF1B9B239C1B
:102650000DF1B809A6E621AADDE9071005F0C2FAD6
:1026600000287EF4CFAF1B9A239C0DF1B8099CE49F
:1026700023466FE78DF86710FFF70DBA21AADDE951
:10268000071005F0AFFA00287EF4BCAF1B9BDDE914
:1026900022240DF1B809F5E6F0C1040824ED040880
:1026A00067666666C4A3030821AADDE9071005F082
:1026B00099FA00287EF4A6AF239C0DF1B8095FE4D7
:1026C000302330328DF8763004238DF87720129342
:1026D0000E9A129B012A1344069340F3B980069B7D
:1026E0000F9A1344069323EAE373039300230B9397
:1026F000BFE5DDF808B015E41FA91CAB741CCDE9DB
:10270000003122461BAB02219DED160B089801F00B
:10271000ADF90A90472F3FF488AD0A9B1C4406E7A9
:10272000002B40F0A480012303930693A1E59DF8BC
:102730006780139EFFF70CB821AADDE9071005F0AA
:1027400051FA00287EF45EAF239C0DF1B8090FE426
:10275000062642E521AADDE9071005F043FA002824
:102760007EF450AF1B9B0E9A239CD31A0DF1B8092F
:1027700036E40396069609940646CDF808B00B9009
:102780009DF86780FEF7E4BF8DF86710FFF7ECB89F
:102790008DF86710FFF705B9DDE90E3213440B9A87
:1027A0000693002A06DC0B9B069AC3F101031A4428
:1027B0001346069223EAE3730393672759E58DF8DE
:1027C0006710FFF72CB88DF86710FFF700B88DF889
:1027D0006710FEF776BF8DF86710FFF723B9BB4689
:1027E00001322C44072ACDE92224C9E900B57FF73C
:1027F000F0AD21AADDE9071005F0F4F900287EF418
:1028000001AFDDE922240DF1B809E4E5002200233F
:10281000DDE9160108F04CFF00287FF486AEC6F112
:1028200001031B9382E60F9BD3183344069323EADC
:10283000E37303931DE50D9B1D4A002BB6BF4FF0BC
:102840002D089DF867808DF867801A4BFFF7DAB87E
:102850001BF001020B927FF442AFE8E70B9B0F9A4B
:102860001344069323EAE3730393672701E50F9B61
:1028700001333344069323EAE3730393F9E44A46AE
:102880002FE6099B9AF8017053F8046B099382466E
:1028900046EAE676FEF721BE0223129318E7089A6D
:1028A0000C2313604FF0FF330493FEF7B4BE00BF58
:1028B00008ED04080CED04082DE9F04F8A46ADF54B
:1028C000317DB1F90C1009938B040690934609D41D
:1028D000DAF8643041F4005123F40053AAF80C10E4
:1028E000CAF864300023DFF82C940A930E930893FF
:1028F00098460793CDF80CB0039E16F8013B13934E
:10290000002B7DD019F803B01BF0080B40F0958028
:10291000252B7BD1039B5A785D465C46A2F12503AB
:10292000711C532B6CD8DFE813F070006B006B0048
:102930006B006B003B046B006B006B006B006B006B
:10294000CF03CF03CF03CF03CF03CF03CF03CF03F7
:10295000CF03CF036B006B006B006B006B006B0051
:102960006B006B006B006B00B90316046B00160460
:102970006B006B006B006B000D046B006B000904B7
:102980006B006B006B006B006B006B006B006B00EF
:1029900005046B006B00FD036B006B006B006B00AC
:1029A0006B006B006B00F803F603160416041604A4
:1029B000EE0334046B006B0028046B001904B000B4
:1029C000E5036B006B00E2036B00DB036B006B0045
:1029D00005045146069805F0F5FE002800F0EC8548
:1029E0000B9B002B00F0CA84079A002A00F0138684
:1029F000BAF80C3013F0400F18BF4FF0FF320792B7
:102A000007980DF5317DBDE8F08F0E46DAF80430F9
:102A1000002B33DDDAF8003016F8012C19789142DA
:102A2000EED1DAF8042003960133013ACAF80030F7
:102A300008F10108CAF804205EE7DAF80420069CD1
:102A400012E0DAF800301A7819F8022012F0080FB4
:102A500003F1010310D0DAF80420CAF80030013A7B
:102A600008F10108CAF80420002AEADC5146204691
:102A700005F0A8FE0028E4D003963DE751460698ED
:102A800005F0A0FE0028C5D0AEE70391A04B0A9345
:102A9000082308930326DAF80430002B40F30C8354
:102AA00068060FD5013E032E00F2FB85DFE816F025
:102AB0008E00D200200034015146069805F082FEB7
:102AC000002891D1DAF80020137819F8033013F0B8
:102AD000080F02F10102E5D0DAF80430013B002BC7
:102AE00008F10108CAF80430E6DDCAF80020EBE777
:102AF000631EB3F5AE7F86BF6FF4AE7204EB020BBC
:102B00004FF0000B58AECDF810B0DDF820B00B96AA
:102B100088BF40F25D1445F458650027DAF80010CC
:102B20000878A0F12B034D2B00F25682DFE813F05A
:102B30008E0254028E025402540293027B027B02E4
:102B40007B027B027B027B027B02870287025402AC
:102B5000540254025402540254025402810281026B
:102B60008102810281028102540254025402540201
:102B700054025402540254025402540254025402A5
:102B8000540254025402540254023A0254025402AF
:102B9000540254025402540254025402810281022B
:102BA00081028102810281025402540254025402C1
:102BB0005402540254025402540254025402540265
:102BC000540254025402540254023A02002C05F0FA
:102BD000100308BF4FF0FF3415F001050C9340F0CF
:102BE000D7830C9ADAF80030002A40F06783099DF9
:102BF00055F8046B0DF1600B3444374601E0DAF808
:102C0000003019781BF80110581CC1B1DAF8041013
:102C1000CAF800000139CAF804101B7807F8013B14
:102C2000A7420CD0DAF80430002BE8DC51460698B5
:102C300005F0C8FD0028E2D0BE423FF4D5AEBE1B71
:102C40003FF4DEAE079A0995002301320792B044A3
:102C50003B7051E6002C08BF4FF0FF3405F0100622
:102C600015F00105DAF8003040F0DC82002E38D192
:102C7000099DDDF818B055F8046B3444374601E07F
:102C8000DAF800301A7819F80220100703F1010170
:102C900015D4DAF80420CAF80010013ACAF8042062
:102CA0001B7807F8013BA74209D0DAF80430002B63
:102CB000E6DC5146584605F085FD0028E0D0079A2D
:102CC0000995BE1B002301320792B0443B7013E606
:102CD0005146069805F076FD002840F09D82DAF80E
:102CE00000301A7819F80220160703F1010300F1E9
:102CF0009382DAF80420CAF800300135013AAC4278
:102D0000CAF8042000F08882002AEADCE0E700BF6D
:102D1000B9790008F9A30308069802F01DFB631EA9
:102D200002680D92B3F5AE7F40F279826FF4AE7116
:102D30006318109340F25D14002358AF0B9745F4CD
:102D4000F06511930F931E460C93DAF8000001789A
:102D5000A1F12B0CBCF14E0F00F21781DFE81CF043
:102D6000780015017800150115016B004F004F0028
:102D70004F004F004F004F004F004F004F00150114
:102D80001501150115011501150115011001150198
:102D900015011501FA00F300150115019E0015013A
:102DA0001501150115018900150115011501150100
:102DB0001501830015011501150115017D0015018F
:102DC0001501150115011501150115011001150158
:102DD00015011501FA00F300150115019E001501FA
:102DE00015011501150189001501150115011501C0
:102DF0001501830015011501150115017D0013EB67
:102E00000B0F13D125F4C07507F8011B013CDAF84C
:102E100004100139002908F10108CAF8041040F330
:102E2000C7810130CAF80000002C8ED1002E41D09D
:102E300025F480753EE0EA05E1D5109A25F080057D
:102E40000136002A00F05882109A013A1092DEE70B
:102E50002A06EBD525F08005D6E7BBF1070FE5D1B3
:102E60004FF0080BD0E7BBF1060FDFD14FF0070B97
:102E7000CAE7002B40F0A9812EB905F4E06CBCF53F
:102E8000E06F00F08D83BBF1010F02D0BBF1040FA6
:102E9000CCD10BF1010B5FFA8BFBB5E7BBF1000F57
:102EA00040F09881002EC3D105F4E06CBCF5E06FD2
:102EB00000F07183013B012B40F29E830BF1FF3345
:102EC000062B40F2F782E8051BD5690500F1B283B5
:102ED00017F8011C652907F1FF3408F1FF3B0AD000
:102EE000452908D05246069805F02EFC17F8021C1A
:102EF000A8F1020BBC1E5246069805F025FCD846E8
:102F0000274615F010027FF4F7AC05F4C063B3F563
:102F1000806F3A7000F013820F9B002B40F03183DA
:102F200000220B99069804F03BFA099BEA0703F18B
:102F3000040440F1E1821B6883ED000B079B0994B8
:102F400001330793D8E4BBF1020F7FF46FAF4FF06A
:102F5000030B59E705F4A06CBCF5806F04D06A053B
:102F60007FF564AF002EA5D0AA0503D40C9A119763
:102F7000B21A0F9225F4F06545F4C075002643E7B8
:102F8000012B7FF453AF02233EE70D9A92F800C065
:102F90008C457FF44BAFAA057FF548AF25F420752B
:102FA0000C9631E705F4C063B3F5007F14D125F426
:102FB000007545F4A0654FF0100BDAF8043006F800
:102FC000010B013B002BCAF8043060DD0131CAF867
:102FD0000010013C7FF4A2ADE905CDF820B007D583
:102FE0000B9B9E4200F2A3810B9B9E423FF408ADD7
:102FF00015F0100412D12246089B34700B990A9CDC
:103000000698A047099BAA0603F1040440F17981C0
:103010001B681860079B0994013307930B9BF61AF2
:103020003744B84468E4BA4B25F4386533F91BB02B
:10303000C3E7BBF10A0FCFDD25F43865BDE7B44B1C
:1030400033F91BB0BBF1080FF6DCC5E72B06C3D57F
:1030500025F08005B1E72B05AFD5BBF1000F03D1FB
:1030600045F400754FF0080B6A0500F14781049B99
:1030700025F4607513B1013B04930134DAF8043090
:10308000013B002B07F10107CAF804309EDC5146D2
:10309000069805F097FB00289BD09DE7039145F02B
:1030A00001059C4B0A930A230893DAF80430002B9D
:1030B0004FF003063FF7F4AC5146069805F082FB4B
:1030C00000283FF4EDAC8FE415F08F0F7FF498AC3F
:1030D00004EB840402EB4404303C72780E461DE499
:1030E0008D4B0A930A23039108930326D3E403919B
:1030F0000226D0E4039145F40875874B0A93102308
:1031000008930326C7E42A077FF47AAC727845F067
:1031100004050E4602E40391C3E7039145F0400520
:103120000026B8E418A803F003F945F04005039021
:103130000126B0E4039145F40075DEE7039145F004
:103140000105A3E428077FF45BAC727845F0020523
:103150000E46FFF7E3BB039104269CE4EB060391C4
:103160003FF5CAAB099A6F0752F8043B099240F148
:10317000D381A3F80080FFF7BFBB2F077FF440ACDB
:1031800072786C2A00F0CD8045F001050E46FFF7FD
:10319000C5BB604B0A9300230391089303267AE48E
:1031A0002C437FF42DAC727810250E46FFF7B6BB8A
:1031B00051460698049305F005FB049B00287FF414
:1031C00035AE002C7FF4C1AD30E6022B7FF45BAE50
:1031D000032319E6BBF1030F3FF45BAEBBF1050F10
:1031E0003FF457AE002E3FF465AE21E6CAF800600A
:1031F0001D44E41A05F0E6FA002840F0BC82DAE942
:1032000000239C425146069802EB0306EEDC1B1B92
:103210002244CAE900232544A844FFF76DBB0023DC
:10322000109389E5002E79D1099A52F804BB0992CE
:10323000002558AF1B7819F803301B0700F19E805A
:10324000002C00F09B8002F077F8A8423FF4CCAB52
:10325000DAE9002312F8011B7955013BCAE9002382
:103260006B1C0B930E9B032B16AB049302D1169B86
:10327000042B04D0082200210498FDF7A1FC049B34
:1032800000933A466B1C5946069802F0FBF8421C24
:103290000E903FF4A9AB002840F08681CBF80000E7
:1032A00002F01CF800285BD10B9B9844013C002ED7
:1032B00040F08A810BF1040B0B9678E10DF1600B65
:1032C0001A781BF802200133002A00F01C81DAF87A
:1032D0000420CAF800300135013AAC42CAF8042093
:1032E0009AD0002AECDC5146069805F06BFA0028CB
:1032F00092D1DAF80030E3E7013C88E525F4B065C7
:103300005BE66B0740F11681099B1B68188081E61C
:10331000D4A3030881760008B97900080DF14C0B9D
:1033200086E7B27845F002050236FFF7F7BA16F8DD
:10333000011C0698524605F007FA013E54E60C9B24
:10334000B342A3EB06023FF4EBAD0DF2B3239F4271
:1033500028BF0DF2B2273846B34903F045F8DFE540
:103360000B9B5BB13D4400E025462C46524614F8C9
:103370000119069805F0E8F9AF42F5D1002E7FF467
:10338000BBAA079BCBF8006001330793FFF7B4BAE1
:10339000002B40F0BE80099B53F8042B0B9209933D
:1033A0000494002658ADCDF834800E9C30E03C608B
:1033B000274616AB1846082200210E93FDF700FCA5
:1033C0009A480E9B3A4612A9D0F8E0700698B84782
:1033D00001280CBF9DF84870002718ABDB5D002B5F
:1033E00000F0F5800D9B032C5B440D935DD0049B96
:1033F000013B04930C9E002E55D10B9B04330B9381
:10340000DAF80430002B37DD049B002B00F0D88065
:1034100001F092FFB0423FF4E7AADAE9002312F884
:10342000011BA955013B032CCAE9002306F1010B3E
:103430000DF1500803D1D8F80030042B04D0082235
:1034400000214046FDF7BCFB0B9FCDF800805B469A
:103450002A463946069802F015F8044601303FF432
:10346000C3AA002CA3D0A11C08BF5E46C8D00B9BEA
:103470001F687A1C9DD1B0E75146069805F0A2F965
:103480000028C1D00E94DDF83480002E7FF4ACAA61
:103490000C9B002B7FF430AA0B9A1360079B01331F
:1034A0000793FFF729BA0026AAE7D8F80030042BC3
:1034B0009DD19FE7BBF1020F40F2CB80BBF1030F20
:1034C0003FF401ADABF10404E4B26FEA040BBB447A
:1034D00004953D462746069C15F8011D5246204698
:1034E00005F032F9AB45F7D13C4608F1FF382F46DD
:1034F000A8EB0408049DE6E4099B1E68AB072ED5E3
:1035000086ED000B1AE5002D3FF47AAAA844FFF7D8
:10351000F3B913AB0B9343E7EE0707D4AC0705D51C
:103520004046C117C3E90001FFF7E6B9C3F80080C0
:10353000FFF7E2B915F001020FD1AD070DD53C4BF5
:103540000A9906989942089B0B9969D004F07AF978
:10355000099B1B68C3E900015CE5099B58E553EC36
:10356000102B51EC100B8DED040B08F0D3F89DEDF2
:10357000040B00287CD151EC100B08F029F93060C5
:10358000DCE4119F069839460A23013104F078F8EB
:103590000F9BC21AD9E625F4F0654FF0010B33E416
:1035A00025F4F06501232FE40E9B023366D1DAF88F
:1035B0000430002B7FF70DAADAF800300B9D39E6B6
:1035C0000E94DDF8348063E700230B93EFE70E944D
:1035D000DDF83480BBF1000F3FF45AAF2E44069F54
:1035E00000E026463446524614F80119384605F0E4
:1035F000ABF8AE42F5D14BE70B9DAF427FF600AA88
:10360000069C17F8011D5246204605F09DF8AF4272
:10361000F7D1FFF7F5B94FF0FF330793FFF7F0B994
:1036200004F0C6FA94E700BF2CED0408580A002005
:10363000B97900080B9DAF427FF6E2A9069C17F806
:10364000011D5246204605F07FF8AF42F7D1FFF743
:10365000D7B90B9B9F427FF6D3A917F8011D069897
:10366000524605F071F80B9B9F42F6D1FFF7C8B99F
:10367000524802F095FE86ED000A5FE4DBF8000098
:1036800001F02CFE00287FF46BAE0B9B98440E9B40
:10369000032B7FF40BAE049B1B68042B7FF406AE58
:1036A00005E6002C08BF012405F0100715F0010500
:1036B00016D1002F7FF4A3AD099D069855F8041B81
:1036C000CDF800A02346012205F09AF800283FF427
:1036D0008BA9079B0995013380440793FFF70CB929
:1036E000002F43D04FF0000B0E9B0025049301F0F8
:1036F00023FEA8423FF478A9DAE9001258AB11F88A
:10370000010B5855049BCAF80010013A032B05F130
:103710000105CAF8042016AE02D13368042B04D088
:10372000082200213046FDF74BFA2B4659460096F9
:1037300058AA069801F0A6FE411C03463FF454A97E
:10374000F8B90FB9CBF80070A844013C17BB0BF1D6
:10375000040B3D46DAF80420002A1DDD002CC5D1FB
:103760000E93002F3FF49AAEFFF7C6B8099B53F8AB
:1037700004BB0993B8E7002D3FF436A9A844FFF72E
:10378000BBB8821CE6D00328A844DED13268042AE4
:10379000DBD1DBE70025DDE751460698049305F011
:1037A00011F8049B0028D9D00E93002D7FF41CA99A
:1037B000002F3FF473AEFFF79FB800BF48AA04087C
:1037C00070B50D46084C114606461A462846002399
:1037D000236023F00FF8431C00D070BD2368002B3A
:1037E000FBD0336070BD00BF94FA002038B5324B77
:1037F0001B6805460C460BB19A6B12B3B4F90C204A
:1038000093B2180725D5206900282DD013F00102A6
:1038100007D0636900225B42A361A26038B1002037
:1038200038BD990758BF6269A2600028F7D1B4F982
:103830000C301A06F4D543F04003A3814FF0FF305B
:1038400038BD184601F00CFAB4F90C2093B21807F1
:10385000D9D4D90628D5580712D4206942F00803D4
:10386000A3819BB20028D1D103F42072B2F5007F6E
:10387000CCD02846214601F0BBFDA3892069C5E7CD
:10388000216B51B104F14003994204D0284601F064
:1038900057FAB4F90C2000232363002320696360E6
:1038A00022F024022060D9E742F0400209232B6075
:1038B0004FF0FF30A28138BD18020020F0B4184C40
:1038C0002568D5F8484114B365681F2D24DC38B944
:1038D000AB1C0135656044F823100020F0BC704734
:1038E00004EB85060127C6F8882007FA05F2D4F80C
:1038F0008871022847EA0207C4F88871C6F80831BF
:10390000E6D1D4F88C311A43C4F88C21E0E705F5F0
:10391000A674C5F84841D7E74FF0FF30DEE700BF97
:10392000B0A3030838B5074C0023054608462360BA
:1039300009F034FA431C00D038BD2368002BFBD0BB
:103940002B6038BD94FA00202DE9F04F03690F6910
:10395000BB4283B0C0F28680013F01F1140600F142
:10396000140A56F827305AF82720BC000133009477
:1039700006EB04099A425444B2FBF3F801943AD39B
:1039800000252A46B646D4465EF8044BDCF80030E3
:103990001FFA84FB08FB0B554FEA154B240C08FB60
:1039A00004B4ADB2551BA2B2C2EB134215FA83F3B5
:1039B00002EB23429BB243EA0243F1454FEA14452E
:1039C0004CF8043B4FEA2242DED2009B5AF8033007
:1039D0008BB9019A131F9A450CD252F8043C4BB98B
:1039E000A2F1080302E01A68043B1AB99A4507F1EC
:1039F000FF37F8D30761044602F090F800282DDB6A
:103A000008F101085046002356F8041B05688AB2E5
:103A10009A1A0B0C12FA85F2C3EB154303EB2243FF
:103A200092B242EA0342B14540F8042B4FEA2343E5
:103A3000EAD25AF827200AEB87037AB91A1F92456F
:103A40000BD253F8042C42B9083B02E01A68043B3D
:103A50001AB99A4507F1FF37F8D32761404603B0FA
:103A6000BDE8F08F002003B0BDE8F08F2DE9F04FE6
:103A700057EC106B97B0056C209C039182460A921C
:103A80000793CDE9006755B1426C6A60012393400A
:103A9000AB60294601F0D2FD0023CAF840303E1E3B
:103AA000B4BF012300232360754BBCBF26F0004642
:103AB0000196B34300F0AE809DED007B0022002311
:103AC00051EC170B8DED047B07F0F2FD054678B144
:103AD000079A01231360219B002B00F01083694B90
:103AE000219A1360013B0293029817B0BDE8F08F52
:103AF000DDE9047814AA15A948EC107B504602F0C1
:103B000041F9340D834640F09B80DDE914542C4488
:103B100004F23243202B40F3BA83C3F140039E40AA
:103B2000009B04F2124023FA00F0304307F0DEFA63
:103B3000A1F1F87301210246013C0E91104619468D
:103B40000022514B07F094F947A3D3E9002307F073
:103B500047FB47A3D3E9002307F08CF9064620462C
:103B60000F4607F0D3FA44A3D3E9002307F038FB4C
:103B700002460B463046394607F07CF906460F46AA
:103B800007F0DEFD0022814600233046394607F06B
:103B900099FD002840F0A6822C1BB9F1160F04F104
:103BA000FF3800F29382394B03EBC903D3E90023BA
:103BB000DDE9040107F086FD00286DD00023B8F18F
:103BC000000F09F1FF390D93C0F28682002309939B
:103BD000B9F1000F66DA099BCDF81890A3EB090341
:103BE0000993C9F100030C93039B092B4FF00009C3
:103BF00060D8052B40F34983043B03930024039BC7
:103C0000023B032B00F25186DFE813F068046504E1
:103C10003E045804079A42F20F731360009BC6F3E8
:103C20001306334318D1219B002B00F03586184B27
:103C300002930833219A0298136017B0BDE8F08F01
:103C4000C8F3130141F07F530E953A46A4F2FF34B6
:103C500043F44013149D71E7219B002B40F0038433
:103C60000C4B029340E700BF61436F63A787D23FCD
:103C7000B3C8608B288AC63FFB799F501344D33F5B
:103C80000000F07FF1C104080000F83F10A5030810
:103C900038ED040834ED0408B8F1000FC0F2BE841A
:103CA0000D90099000230C93039BCDF81890092BDD
:103CB000C8449ED9002301240393CDE90A344FF070
:103CC000FF3308930021089BCAF844100F93504615
:103CD00001F08EFC0290002800F0F085029BCAF8EB
:103CE0004030089B0E2B00F20A81002C00F0078167
:103CF0000699002940F36884B14B01F00F0203EBF1
:103D0000C20393ED007B0C11E2068DED107B40F1B8
:103D10000884AC4BDDE90401D3E9082307F08AFBF2
:103D2000CDE9000104F00F0403267CB1DDE91001A8
:103D3000A44DE30704D5D5E9002307F051FA013675
:103D4000641005F10805F4D1CDE91001DDE90001A9
:103D5000DDE9102307F06EFBCDE900010D9B53B1A7
:103D6000DDE900450022984B2046294607F0AAFCD1
:103D7000002840F02785304607F0C8F9DDE9002328
:103D800007F02EFA914B002207F074F8089B0446C6
:103D9000A1F15075002B00F0FB83069B1293089B4A
:103DA0001093DDE900673946304607F0C9FC009002
:103DB00007F0ACF902460B463046394607F058F892
:103DC0007F4B009A0F461099064603EBC1030B98F0
:103DD00002993032CDE90045D5B24C1C53E902239B
:103DE000002800F097840020794907F023FBDDE9E3
:103DF000002307F03DF8029B32461D703B46CDE99B
:103E0000000107F07DFC002840F0D48432463B4698
:103E100000206D4907F02CF802460B46DDE9000151
:103E200007F06EFC002840F03285109B012B62D019
:103E3000029ACDF840901344CDF84C80DDE900891A
:103E4000CDF800B0D3469A460EE032463B460020FD
:103E50005D4907F00DF842464B4607F033FC002859
:103E600040F0EE8454453FD0404649460022594B2D
:103E700007F0B6F90022574B80468946304639464E
:103E800007F0AEF90F46064607F05AFC054607F064
:103E90003DF902460B463046394606F0E9FF30351B
:103EA000EDB204F8015B42464B4606460F4607F06A
:103EB00009FC0028C9D0129BDA460133DDF800B0B6
:103EC00006935946504601F0B9FB00232370079B27
:103ED0001A46069B1360219B002B3FF405AE029807
:103EE0001C6017B0BDE8F08FDA46DDF84090DDF8D1
:103EF0004C80DDF800B0DDE90434CDE90034159BD9
:103F0000002BC0F2C680069A0E2A00F3C2802C4B0A
:103F100003EBC203D3E900890A9B002B17DA089F41
:103F2000002F14DC40F04D8300222B4B40464946C5
:103F300007F056F9DDE9002307F0D8FB002800F070
:103F4000C483089F3D460A9B029CDB435FE2DDE998
:103F5000004542464B462046294607F06BFA07F0DB
:103F6000EFFB0646009007F0D1F842464B4607F0BB
:103F700037F902460B4620462946029C3546303525
:103F800006F076FF069E04F8015B089D0136012DC0
:103F900002460B46069652D000220E4B07F020F93F
:103FA0000022002306460F4607F082FB002888D136
:103FB000CDF800B00125DDF820B0CDF80CA01AE056
:103FC00010A5030800A603080000F03F00001C40F5
:103FD0000000E03F00002440000014400022B94BE4
:103FE00007F0FEF80022002306460F4607F060FBAC
:103FF000002840F0608342464B463046394607F081
:1040000019FA07F09DFB824607F080F842464B46BE
:1040100007F0E6F802460B463046394606F028FF20
:1040200001350AF13006AB4502460B4604F8016B38
:10403000D4D1DDF800B0CDF800A0DDF80CA010461A
:10404000194606F017FF42464B4606460F4607F054
:1040500057FB60B942464B463046394607F028FBCD
:1040600000283FF42EAF009BD9077FF52AAF14F844
:10407000015C029A631E04E09A4200F0C98313F8BF
:10408000015D392D03F10104F6D06A1CD2B21A7019
:1040900017E70B9A002A38D0039A012A40F3568278
:1040A000089B5E1E0C9BB342C0F235829E1B089B90
:1040B000002BC0F20583099A14461A4498440992C9
:1040C0000121504601F0BCFB054621E00123B8F177
:1040D000000F0D93BFF67AADC4F1010309934FF0C1
:1040E000000875E5484607F011F832463B4607F0F0
:1040F000DFFA00287FF450AD09F1FF394CE5724B2F
:104100000293029817B0BDE8F08F0C9E099C0B9D9E
:10411000002C0CDDB8F1000F09DD4445099A234657
:10412000A8BF4346D21A0992E41AA8EB03080C9BD5
:10413000D3B10B9B002B00F08F81002E10DD2946A0
:104140003246504601F038FC5A4601460546504674
:1041500001F08CFB59460746504601F06FFABB460A
:104160000C9B9A1B40F079810121504601F068FBBD
:10417000B9F1000F074600F39080039B012B40F339
:10418000778100260120B9F1000F40F09180404472
:1041900010F01F0077D0C0F12003042B40F3808380
:1041A000C0F11C00099B0344099304448044099B0B
:1041B000002B05DD59461A46504601F049FC83465E
:1041C000B8F1000F05DD39464246504601F040FC8B
:1041D00007460D9B002B40F02481089B002B40F3E9
:1041E000FB800B9B002B7FD1069B01330693029C27
:1041F000DDF82080012607E0594600230A225046B8
:1042000001F026FA0136834639465846FFF79CFBF3
:10421000B04500F1300004F8010BEDDC03464FF02F
:104220000009594601225046009301F011FC39461D
:10423000834601F073FC002814F8012C40F37881C8
:10424000631E029904E0994200F08D8113F8012D5C
:10425000392A03F10104F6D001321A70394650466A
:1042600001F0ECF9002D3FF42CAEB9F1000F05D0B0
:10427000A94503D04946504601F0E0F92946504689
:1042800001F0DCF91DE61C208CE70124B7E4C3F142
:104290002006009B03FA06F048E401464A465046D1
:1042A00001F08AFB039B012B074640F3B9810026EE
:1042B0003B6907EB8303186901F072FAC0F1200033
:1042C00065E700BF00002440F0C104082946002330
:1042D0000A22504601F0BCF90F9B002B054640F323
:1042E000CE82CDF818800893002C00F30D81002EAB
:1042F00040F0CA81A846009B0399029E03F0010288
:104300000B920A430A92089A731E1A44099239467C
:104310005846FFF719FB29460090584601F0FEFB6E
:10432000424681463946504601F014FC009BC26863
:1043300004463033002A41D101465846089301F023
:10434000EDFB21460490504601F078F9049A089B51
:104350001AB90A99002900F07A82B9F1000F06F122
:104360000104C0F27481039941EA09090B9951EAE9
:10437000090100F06C81002A00F3A981099A3370C9
:10438000B24200F0B081594600230A22504601F0A3
:104390005FF94545834629464FF000034FF00A0276
:1043A000504613D001F054F94146054600230A2235
:1043B000504601F04DF926468046A8E70146504692
:1043C000049301F03BF90122049BC6E701F040F998
:1043D0002646054680469AE7039B022B40F38180E0
:1043E000089B002B7FF4AFAD39460522504601F003
:1043F0002FF901460746584601F090FB00287FF749
:10440000A2AD029C069B312204F8012B013301333B
:1044100039465046069301F011F9002D7FF42EAF76
:104420004FE53946584601F079FB0028BFF6D5AE76
:10443000594600230A22504601F00AF9069B03F16F
:10444000FF380B9B8346002B7FF440AF0F9B002B64
:1044500040F30A820893CAE60C9A5946504601F086
:10446000ABFA834680E6A54B02930333FFF7E2BB2A
:10447000DDE9001200297FF484AEC2F31303002BA0
:1044800000F0D980009E7DE601230B930A9D002D4C
:1044900049DD0F9508950021172DCAF844107FF7C4
:1044A00016AC012204235B0003F11400A84211465C
:1044B00002F10102F7D9CAF8441008E401230B9372
:1044C0000A9B069A13440F930133012B1D46089350
:1044D000B8BF0125DFE700230B93F1E700230B931F
:1044E000D4E70B9B002B7FF4FFAE39465846FFF70D
:1044F0002BFA069A029C00F130030132069204F86E
:10450000013B4FF000098CE629462246504601F057
:104510009FFA0546EBE60C9B0C96F31A994400268D
:10452000C5E5022601E401230A930893FFF7CABBFD
:1045300003D1009BDB073FF583AE631E01E013F858
:10454000012D302A03F10104F9D087E60E9A002AE2
:1045500000F0CF8003F23343099A0C9E14461A44AC
:1045600098440992ACE5069A01320692029A3123E8
:10457000137073E6304606F0C9FDDDE9002306F04E
:104580002FFE00225E4B06F075FC0446A1F150752B
:1045900000225C4BDDE9000106F06AFC22462B4656
:1045A00006460F4607F0ACF8002840F08D80224602
:1045B00005F100433046394607F084F800283FF4FF
:1045C0009AAC00273D46BEE400F0F980069B5C42B1
:1045D0004D4B04F00F0203EBC203D3E90023DDE9E6
:1045E000040106F0FDFD2411CDE9000100F0E78093
:1045F000464D00230226E70705D5D5E9002306F03E
:10460000EFFD01360123641005F10805F3D1002BFD
:104610003FF4A4ABCDE90001FFF7A0BB0D905BE533
:10462000009B002B7FF443AEDDE90012C2F31303BD
:10463000002B7FF43CAE364E1640002E3FF4A2AD68
:10464000099B0133099308F1010801269AE50699AF
:10465000002A01F10101069112DD5946012250465E
:10466000039301F0F5F93946834601F057FA002823
:10467000039B40F3DF80392B00F0D180009B313366
:10468000A94633704546E9E56968504600F0B0FF39
:104690000446002800F019812B6902339A0005F1C5
:1046A0000C010C30FCF78AF921460122504601F03A
:1046B000CFF980461FE6DDF800B0DDF80CA000E47D
:1046C000DDE908239C1AFBE400273D4699E6069A9B
:1046D000392B02F10102069200F0A1800133A946B4
:1046E00033704546BAE5069A0132A9460692454618
:1046F00097E5149BC3F136032EE700BF34ED0408A1
:1047000000001C400000144010A5030800A6030888
:104710000000F07FDDE9000106F062FD029B1D70E4
:10472000109B012BCDE9000123D0109B029ACDF8FC
:1047300040901344C146984600226D4B304639469E
:1047400006F04EFD0F46064606F0FAFF054606F057
:10475000DDFC303502460B463046394606F088FB14
:1047600004F8015B444506460F46E5D1C846DDF82E
:104770004090604B0022DDE9000106F07BFB3246F1
:104780003B4606F09FFF00284ED1DDE900230020C4
:10479000584906F06DFB32463B4606F0B1FF002853
:1047A0003FF4A9AB00E0144614F8013C302B04F1AF
:1047B000FF32F8D0129B01330693FFF782BB02262B
:1047C000FFF7CCBA089B002B3FF4D4AE0F9F002F0D
:1047D0007FF791AB0022464B2046294606F000FDAC
:1047E00004460D46701CCDE9004506F08FFC2246BC
:1047F0002B4606F0F5FC404B002206F03BFB069BE7
:104800001097013B0446A1F150751293FFF7C9BA06
:10481000069A0132069231221A70FFF752BB3922F2
:10482000A946327045460BE5129B0133069314F8F6
:10483000015C1EE47FF424AFDA077FF521AF1AE7AD
:10484000129B0133DA460693DDF800B011E4069AB4
:10485000392B02F10102069206F10104DFD0B9F111
:10486000000F3FF70BAF0BE7039B022B02DCCDF8E9
:1048700018803AE60F9B0893CDF81880B0E5039BAB
:10488000022BF7DC0F9BCDF8188008932CE5129BC8
:1048900001330693FFF7EDBB184B0293FFF724B9E2
:1048A0003FF485ACC0F13C007CE40024CAF84440ED
:1048B0002146504600F09CFE029068B9104B11480A
:1048C00000224FF4D57105F07FFC02460C4B0D48D9
:1048D00040F2EA2105F078FC4FF0FF330893029A8A
:1048E0000F930123CAF840200A940B93FFF707BBEC
:1048F000000024400000E03F00001C4038ED0408A8
:1049000044ED040858ED0408B1F90C309AB22DE9D1
:10491000F0410C461107804648D4626843F40063B6
:10492000002AA3815DDDA56A002D57D000229BB22D
:10493000D8F80060E169C8F8002013F4805254D11F
:1049400001234046A847431C66D0A389A56AE169B4
:104950005F0705D56268236B801A0BB1E36BC01A41
:10496000024600234046A847451C48D1D8F80020FD
:10497000B4F90C30002A5CD01D2A01D0162A64D16B
:1049800022690021C4E9002123F40063A381216B83
:10499000C8F8006011B304F14003994202D04046C8
:1049A00000F0CEF900202063BDE8F0812669AEB1A9
:1049B0002568266091070CBF63690023AD1BA360C7
:1049C0000AE02B463246676AE1694046B84700284C
:1049D000A5EB000506440ADD002DF2DC0020BDE851
:1049E000F081E26B002A9EDCF8E7206DB0E7A38936
:1049F00043F04003A3814FF0FF30BDE8F081B4F9EC
:104A00000C302269226023F4006300226260DA0421
:104A1000A381BCD52065BAE7D8F80030002B94D02C
:104A20001D2B0FD0162B0DD0A38943F04003A3817B
:104A3000D5E723F400632169A381DB04C4E90012F4
:104A4000A5D5E7E7C8F80060C8E743F04003A381B5
:104A5000C5E700BF10B5044682B008B1836B23B12F
:104A6000B1F90C0048B902B010BD019100F0F8F89E
:104A70000199B1F90C000028F5D0204602B0BDE83C
:104A80001040FFF741BF00BF20B1054B0146186839
:104A9000FFF7E0BF034B0449186800F0F5BB00BF07
:104AA00018020020B0A30308554A000800207047F0
:104AB000014900F0E9BB00BF71A200082DE9F84FE1
:104AC00045682C4BC3630024074600F53B72042362
:104AD0000321C0E9B912C0F8E0422146EB6005F1BC
:104AE0005C006C66C5E90044AC60C5E90444AC6197
:104AF0000822FCF765F8DFF888B0BE68DFF884A00C
:104B0000DFF88490DFF884801B4BC5F82C80C5E962
:104B1000075BC5E909A92146F360082206F15C009C
:104B20007466C6E90044B460C6E90444B461FCF7A5
:104B300047F8FD68114BC6F82C80C6E9076BC6E93B
:104B400009A92146EB606C66C5E90044AC60C5E983
:104B50000444AC6105F15C000822FCF731F8012344
:104B6000C5E9075BC5E909A9C5F82C80BB63BDE8A9
:104B7000F88F00BFB14A00080900010012000200CE
:104B8000D10F0008F90F000839100008591000086B
:104B90000020704770B54A1E682505FB02F50E46D9
:104BA00005F17401FBF758FC044640B100210C30BC
:104BB000666005F168022160A060FCF701F82046FC
:104BC00070BD00BF1F4B70B51D68AB6B06464BB385
:104BD00005F53875D5E90134013B05D51EE0013BEB
:104BE0005A1C04F1680419D0B4F90C20002AF6D13B
:104BF0000025154B6566C4E90055A560C4E9045558
:104C0000A5612946E360082204F15C00FBF7D8FFA8
:104C1000C4E90C55C4E91155204670BD2C682CB16F
:104C20002546D7E72846FFF749FFD1E7042130465C
:104C3000FFF7B0FF044628600028F1D10C23336051
:104C4000EAE700BFB0A303080100FFFF024B0349DE
:104C5000186800F019BB00BFB0A3030871A20008D8
:104C6000836B03B1704729E7704700BF704700BFEF
:104C7000704700BF704700BF024B0349186800F03F
:104C8000DDBA00BF18020020AD4A0008024B0349FC
:104C9000186800F0D3BA00BF18020020914B00083A
:104CA000F8B5244F0C460646FBF7DAFFBB685D6893
:104CB000C4F57E610F3125F00305294421F47F619D
:104CC00021F00F01A1F58054B4F5805F07DB0021CE
:104CD0003046FBF7C9FFBB682B44984204D03046EE
:104CE000FBF7C0FF0020F8BD61423046FBF7BCFF78
:104CF00001300DD0104BBA6819682D1B45F0010525
:104D00003046091B55601960FBF7ACFF0120F8BD68
:104D100000213046FBF7A8FFBA68831A0F2BDEDDAF
:104D2000064C0549246843F00103001B53600860EA
:104D3000D5E700BF48060020180F0020500A0020C9
:104D400000295ED0F8B50F460646FBF789FF57F8F5
:104D500004CC754D2CF00103A7F10800C218A96816
:104D60005468914224F0030400F084801CF0010F89
:104D7000546002EB040133D157F808EC4968A0EB0A
:104D80000E0005F1080C87686745734401F00101C6
:104D900060D0D0F80CE0C7F80CE0CEF8087000291D
:104DA00000F08D8043F0010141601360B3F5007F96
:104DB00030D2DB08591C6C689A10012393402343BE
:104DC00005EBC10255F831406B60083AC0E9024278
:104DD00045F83100E0603046BDE8F840FBF742BFDF
:104DE0004968C9070ED4234405F1080C9168614550
:104DF00043F001046BD0D268CA6091604460C35034
:104E0000D4E7704743F00101B3F5007F47F8041C75
:104E10001360CED35A0A042A46D89A0902F13907F8
:104E2000FF0002F13801EC19EA59083C944255D0D0
:104E3000516821F00301994202D992689442F7D156
:104E4000D468C0E90224A060D0603046BDE8F840D4
:104E5000FBF708BF002962D1D2E90221234443F0C5
:104E60000104D1608A604460C3503046BDE8F84018
:104E7000FBF7F8BE1CF0010F234407D157F8082CAC
:104E8000801A1344D0E90212CA609160274A12685E
:104E900043F001019A424160A8609CD8244B3046FF
:104EA0001968FFF7FDFE96E7142A0AD9542A1DD87F
:104EB0001A0B02F16F07FF0002F16E01B3E7234402
:104EC00094E702F15C07FF0002F15B01ABE7C5E983
:104ED0000400C0E902CC4460C3507CE76B688910D1
:104EE000012707FA01F119436960AAE7B2F5AA7F21
:104EF00006D8DA0B02F17807FF0002F1770192E79A
:104F000040F254518A4206D89A0C02F17D07FF0004
:104F100002F17C0187E74FF47E777E2183E743F03F
:104F200001014160136056E748060020540A002042
:104F3000140F00209368002B00F002812DE9F04F40
:104F4000B1F90C309BB20C46190783B082469046EB
:104F500035D522699AB313F00202D8F800603DD02B
:104F60000027D4F824B0D4F81CC0DFF8CC923D461A
:104F70004D452B463A4628BF4B4661465046D5B173
:104F8000D847002840F3D280D8F808301B1A0744CD
:104F90002D1AC8F80830002B00F0B780D4F81CC0D8
:104FA000D4F824B04D452B463A4628BF4B466146BF
:104FB0005046002DE4D1D6E900750836D8E72146E1
:104FC0005046FEF713FC002840F03081B4F90C3055
:104FD000D8F800609BB213F00202C1D113F00109AE
:104FE00040F0B080A76820684D46002D54D09A0547
:104FF00040F1BC80AF42BB4600F2E78013F4906FF3
:105000002FD0D4E9041707EB4707A0EB010B07EB00
:10501000D777681C7F105844B8423A4684BF074689
:105020003A465B0540F1E98011465046FBF714FA19
:10503000002800F0F5805A4621690190FBF7BEFC7C
:10504000A289019B22F4906242F08002A281A7EB28
:105050000B0203EB0B00676123612060A2602F4607
:10506000AB465A464946FBF743FDA2682368D21B6C
:105070005B442F46A26023600025D8F80830DB1B74
:10508000B944C8F80830002B3FD0B4F90C30A768F9
:1050900020689BB2002DAAD1D6E900950836A4E776
:1050A0000BF1080353E902679B460833002FF9D040
:1050B0003A460A21304600F04BFA002853D001301E
:1050C000A0EB06094B46D4E904122068BB4228BF76
:1050D0003B46884203D9A5681544AB4219DC9A4285
:1050E0007DDC1346656AE16932465046A847051ED5
:1050F0001CDDB9EB05096BD00120D8F808305B1B2B
:105100002E447F1BC8F8083013BB002003B0BDE855
:10511000F08F31462A46FBF7EBFC23682B442360D3
:1051200021465046FFF796FC0028E2D0B4F90C3037
:1051300043F040034FF0FF30A38103B0BDE8F08F90
:105140000020704733469146104617464E469B4610
:10515000002FA5D00028B5D13A460A21304600F0EC
:10516000F7F90028ABD17B1C9946ACE72369834251
:1051700015D36169A94212D82E4B676A9D4294BF2C
:105180002B466FF000434A4693FBF1F3504601FB78
:1051900003F3E169B847071EC8DDED1B6DE7AF42B9
:1051A00028BF2F463A464946FBF7A2FCA36822686F
:1051B000DB1B3A44A3602260002BEED1214650460F
:1051C000FFF748FC0028E8D0B0E72F46AB4648E799
:1051D00021465046FFF73EFC00288ED0A6E71A462F
:1051E00031460193FBF784FC019BA1682268C91A30
:1051F0001A44A16022601D467BE7504600F0E2FEA3
:10520000034600287FF423AF21695046FFF798FD3D
:10521000B4F90C300C2223F08003CAF8002087E791
:105220000C23CAF80030B4F90C3081E74FF0FF309E
:105230006CE700BFFEFFFF7F00FCFF7F2DE9F04120
:1052400010F538771BD088460026D7E90154013D78
:105250000FD4A389012B05F1FF3506D9B4F90E301F
:105260000133204601D0C04706436B1C04F168049B
:10527000EFD13F68002FE8D13046BDE8F0813E46CF
:105280003046BDE8F08100BF2DE9F84310F53877CE
:105290001FD0884606464FF00009D7E90154013D6A
:1052A00011D4A389012B05F1FF3508D9B4F90E30CB
:1052B00001332146304602D0C04749EA00096B1C41
:1052C00004F16804EDD13F68002FE6D14846BDE8FF
:1052D000F883B9464846BDE8F88300BF002100F0D6
:1052E00001B800BFFF289DBF024BC05C00F0080062
:1052F00000207047F9A3030842B110B50B491046CE
:105300001446FBF7B1FE18B9094810BD08487047AC
:1053100007492046FBF7A8FE0028F5D0204605499E
:10532000FBF7A2FE0028EFD0002010BD90ED04088E
:105330008CED040848AA0408014B93F82801704733
:10534000580A0020024B0A4601461868FFF7D4BFEE
:1053500018020020F030704700487047480B0020CA
:1053600000487047480B002070B50D46084C1146A8
:1053700006461A4628460023236007F037FD431CE3
:1053800000D070BD2368002BFBD0336070BD00BF20
:1053900094FA002070B50C46B1F90E10002996B0B1
:1053A00015461E4614DB6A4605F058F800280FDB48
:1053B000019A02F47042A2F50052B2FA82F2520946
:1053C0004FF480634FF4006032602B6016B070BD04
:1053D000A289002312F08000336004D040221846D6
:1053E0002A6016B070BD4FF480632B6016B070BD9C
:1053F0008A8992070B4606D501F1430201211A6002
:10540000C3E90421704770B582B001AB6A460C460F
:105410000646FFF7BFFF009905463046FBF71CF82C
:10542000B4F90C3070B11649F163019A009920600B
:1054300043F08003A381C4E904018AB92B43A3810B
:1054400002B070BD9A05FBD423F0030304F14302BC
:1054500043F002030121A3812260C4E90421EFE7A4
:105460003046B4F90E1005F0F3FB10B9B4F90C3066
:10547000E4E7A38923F0030343F001031BB2DDE754
:10548000B14A0008F0B50D4D83B0D5F8E450089C42
:1054900007462AB10094A847431C08D003B0F0BDCA
:1054A000114601230094064AA847431CF6D1002266
:1054B0008A2322603B6003B0F0BD00BF580A002081
:1054C00048AA0408F0B50F4D0F4CD5F8E4602468E5
:1054D00083B01D4649B1009313460A460146204653
:1054E000B047431C08D003B0F0BD0093074A012326
:1054F0002046B047431CF6D100228A232A6023604D
:1055000003B0F0BD580A00201802002048AA040881
:1055100010B4034CD4F8E440A4465DF8044B604753
:10552000580A002082B049B15AB16BB113780B60B0
:105530001278101C18BF012002B0704701A9002A80
:10554000F3D1104602B070476FF00100F4E700BFDE
:1055500001F0FF01102A2BDB10F0070F08D010F824
:10556000013B013A8B422DD010F0070F42B3F6D128
:10557000F0B441EA012141EA014122F007047FF041
:1055800000070023F0E80256083C85EA010586EA98
:10559000010685FA47F5A3FA87F586FA47F6A5FAD4
:1055A00087F68EB9EED1F0BC01F0FF0102F00702E0
:1055B00032B110F8013B013A83EA010313B1F8D18B
:1055C0000020704701387047002D06BF354603386C
:1055D000073815F0010F07D1013015F4807F02BFA5
:1055E000013015F4C03F0130F0BC0138704700BFF6
:1055F000C36C70B505460C464BB153F8240080B11E
:10560000026843F824200023C0E9033370BD21223F
:10561000042104F0FDFD0346E8640028EDD10020DC
:1056200070BD012101FA04F6721D2846920004F0B3
:10563000EFFD0028F3D0C0E90146E4E731B1C36CC7
:105640004A6853F82200086043F82210704700BFF0
:10565000F0B50C6983B00D46064601F1140C002725
:10566000DCF8000081B202FB0133190C000C02FBD4
:1056700000109BB2013703EB0043BC424CF8043BE3
:105680004FEA1043ECDC3BB1AA68A24207DD05EB10
:105690008402013453612C61284603B0F0BD69686F
:1056A000019330460131FFF7A3FF019B0746B8B1D4
:1056B0002A690193023205F10C0192000C30FBF7CC
:1056C0007DF9F26C6968019B52F82100286042F86C
:1056D00021503D4605EB8402013453612C61DBE728
:1056E0000246024B0248B52104F06EFD44ED040869
:1056F0009CED04082DE9F843264C089E1D4608330E
:1057000084FB034C092D4FEAE373904607460C4691
:10571000C3EB6C0236DD012300215B009A4201F1EC
:105720000101FADC3846FFF763FF68B30123B8F1E3
:10573000090FC0E9043613DC0A344FF00908454567
:105740000CDDA5EB0805254414F8013B0146303B70
:105750000A223846FFF77CFFA542F5D1BDE8F88361
:1057600004F109094E46444416F8013B0146303B1A
:105770000A223846FFF76CFFB442F5D1A8F10804BD
:105780004C44DCE70021CDE70246034B0348CE2121
:1057900004F01AFD398EE33844ED04089CED04084A
:1057A000020C12040346CAB90304102013F07F4F01
:1057B00004BF1B02083013F0704F04BF1B010430FC
:1057C00013F0404F04BF9B000230002B05DB13F0A9
:1057D000804F00F1010008BF202070470020E5E75E
:1057E000036813F00702014607D0DA0720D49807B0
:1057F00022D55B080B600120704798B2B0B91B0C32
:10580000102013F0FF0F04BF1B0A08301A0704BF53
:105810001B0904309A0704BF9B080230DA0703D43F
:105820005B0800F1010005D00B6070471046E8E707
:1058300000207047202070479B080B6002207047B3
:1058400010B50C460121FFF7D3FE024618B1012323
:10585000C0E9043410BD034B03484FF4A07104F0B9
:10586000B3FC00BF44ED04089CED04082DE9F04FA3
:105870000E691769BE4283B00C46154605DB3A46F1
:105880002B4637460D4616461C46D5E9011307EB55
:1058900006084345B8BF0131FFF7AAFE0090002873
:1058A0007FD0009B03F1140A0AEB8809CA4505D290
:1058B0005346002143F8041B9945FBD804F1140E0C
:1058C0000EEB860B05F11403DE4503EB870753D27D
:1058D000CDF80480984605E0090C28D1F3450AF17B
:1058E000040A47D95EF8041B8EB2002EF4D0454658
:1058F0005446002355F8041B20688AB21FFA80FC26
:1059000006FB02C2090C000C134406FB010202EB69
:1059100013429BB243EA0243AF4244F8043B4FEACE
:105920001243E7D823605EF8041C090CD6D0DAF8DD
:10593000003040461A4654464FF0000C0588120CC1
:1059400001FB052294449BB243EA0C4344F8043B18
:1059500050F8043B22681B0C95B201FB035303EB88
:105960001C4387424FEA134CE8D8F34523600AF101
:10597000040AB7D8DDF80480B8F1000F0BDD59F840
:10598000043CA9F104091BB105E059F8043D13B921
:10599000B8F10108F9D10098C0F8108003B0BDE853
:1059A000F08F0246024B034840F25D1104F00CFCFC
:1059B00044ED04089CED040812F003032DE9F041C6
:1059C000144607462ED10D46A4101CD0BE6C96B3CB
:1059D000E3074FF0000806D4641014D03068A8B173
:1059E0000646E307F8D5324629463846FFF73EFF1C
:1059F000B5B16A68FB6C641053F82210296043F853
:105A000022500546EAD12846BDE8F08132463146AB
:105A10003846FFF72BFF3060C0F800800646E0E70D
:105A20000546D9E7013B094A52F823200023FFF736
:105A30000FFE0546C8E740F271213846FFF700FF28
:105A40000023B86406460360C2E700BF00A5030850
:105A50002DE9F8430E690D464FEA6219D1E90113A9
:105A60004E44741C9C429046074604DD5B009C42F9
:105A700001F10101FADC3846FFF7BAFD002842D0F7
:105A8000B9F1000F00F1140C0EDD09F105094FEA20
:105A9000890900EB09016346002243F8042B8B427D
:105AA000FBD1A9F11409CC44296905F1140318F0BC
:105AB0001F0803EB810E1DD0C8F1200900221968D0
:105AC00001FA08F111434CF8041B53F8042B7345F9
:105AD00022FA09F2F3D3CCF80020002A18BF264698
:105AE000FB6C6A68066153F82210296043F8225063
:105AF000BDE8F883ACF1040C53F8042B4CF8042FE8
:105B00009E45F9D8ECE70246024B034840F2D91112
